:100000000C9434000C9446000C9446000C9446006A
:100010000C9446000C9446000C9446000C94460048
:100020000C9446000C9446000C9446000C94460038
:100030000C9446000C9446000C9446000C94460028
:100040000C9446000C9446000C9446000C94460018
:100050000C9446000C945B000C9446000C944600F3
:100060000C9446000C94460011241FBECFEFD8E03C
:10007000DEBFCDBF21E0A0E0B1E001C01D92A13103
:10008000B207E1F70E94F1000C940B030C940000FE
:100090008AB188668AB984B1846E84B98BB187606D
:1000A0008BB9089580E480937C008FEC80937A0074
:1000B00010927B0008951F920F920FB60F92112499
:1000C0002F938F939F93AF93BF93EF93FF93A8E7E3
:1000D000B0E08C9180931001E9E7F0E0808190E03E
:1000E00090930F0180930E012C91808190E0982FC6
:1000F0008827822B90930D0180930C01EAE7F0E0B2
:10010000808180648083FF91EF91BF91AF919F9137
:100110008F912F910F900FBE0F901F901895809187
:100120000C0190910D0108954A9915C085B1806226
:1001300085B981E090E090930B0180930A012FE351
:100140008DE093E0215080409040E1F700C0000036
:1001500085B18F7085B9499915C085B1806485B91D
:1001600081E090E090930901809308012FE38DE0F6
:1001700093E0215080409040E1F700C0000085B13D
:100180008F7085B9489915C085B1806885B981E0BF
:1001900090E090930701809306012FE38DE093E0B8
:1001A000215080409040E1F700C0000085B18F7081
:1001B00085B908950E948F00BC0180E090E00E9404
:1001C000100220E030EC4FE754E40E946F0120E081
:1001D00030E04FE753E40E949E020E94E101CB0110
:1001E0000895EF92FF920F931F93CF93DF930E9496
:1001F00048007894E12CF12C00E010E0C0E0D0E061
:100200000E9494000E94520080910A0190910B017B
:100210009E012095309582239323892B41F00E94E3
:10022000DA009093050180930401C1E0D0E0809151
:10023000080190910901980120953095822393231C
:10024000892B41F00E94DA00909303018093020110
:1002500001E010E08091060190910701970120953F
:10026000309582239323892B49F00E94DA009093E2
:10027000010180930001EE24E394F12CCE01802350
:1002800091238E219F21892B09F4BACF80910401FB
:1002900087BD84B5836884BD85B5816085BD809147
:1002A000020188BD84B5836284BD85B5816085BD4A
:1002B000809100018093B400E0EBF0E080818362E4
:1002C0008083E1EBF0E080818160808380E090E0DA
:1002D000DF91CF911F910F91FF90EF9008950E94B1
:1002E00083010C9464020E945D0258F00E94560241
:1002F00040F029F45F3F29F00C944D0251110C9409
:1003000098020C9453020E94750268F39923B1F38A
:10031000552391F3951B550BBB27AA27621773072B
:10032000840738F09F5F5F4F220F331F441FAA1FBF
:10033000A9F335D00E2E3AF0E0E832D0915050407B
:10034000E695001CCAF72BD0FE2F29D0660F771F29
:10035000881FBB1F261737074807AB07B0E809F00F
:10036000BB0B802DBF01FF2793585F4F3AF09E3F94
:10037000510578F00C944D020C9498025F3FE4F321
:10038000983ED4F3869577956795B795F7959F5FD7
:10039000C9F7880F911D9695879597F90895E1E023
:1003A000660F771F881FBB1F621773078407BA0782
:1003B00020F0621B730B840BBA0BEE1F88F7E095DD
:1003C00008950E947D0288F09F5798F0B92F9927D1
:1003D000B751B0F0E1F0660F771F881F991F1AF030
:1003E000BA95C9F714C0B13091F00E949702B1E0FC
:1003F00008950C949702672F782F8827B85F39F0FB
:10040000B93FCCF3869577956795B395D9F73EF4C8
:1004100090958095709561957F4F8F4F9F4F089570
:10042000E89409C097FB3EF490958095709561958E
:100430007F4F8F4F9F4F9923A9F0F92F96E9BB2744
:100440009395F695879577956795B795F111F8CFC0
:10045000FAF4BB0F11F460FF1BC06F5F7F4F8F4F2B
:100460009F4F16C0882311F096E911C0772321F021
:100470009EE8872F762F05C0662371F096E8862FB9
:1004800070E060E02AF09A95660F771F881FDAF710
:10049000880F9695879597F9089597F99F6780E853
:1004A00070E060E008959FEF80EC089500240A94C6
:1004B0001616170618060906089500240A9412163F
:1004C0001306140605060895092E0394000C11F472
:1004D000882352F0BB0F40F4BF2B11F460FF04C01F
:1004E0006F5F7F4F8F4F9F4F089557FD9058440F78
:1004F000551F59F05F3F71F04795880F97FB991F83
:1005000061F09F3F79F0879508951216130614063F
:10051000551FF2CF4695F1DF08C0161617061806CC
:10052000991FF1CF86957105610508940895E894A7
:10053000BB2766277727CB0197F908950E94B10260
:100540000C9464020E94560238F00E945D0220F072
:10055000952311F00C944D020C94530211240C9429
:1005600098020E94750270F3959FC1F3950F50E0B9
:10057000551F629FF001729FBB27F00DB11D639F55
:10058000AA27F00DB11DAA1F649F6627B00DA11DFB
:10059000661F829F2227B00DA11D621F739FB00DA1
:1005A000A11D621F839FA00D611D221F749F332711
:1005B000A00D611D231F849F600D211D822F762FAA
:1005C0006A2F11249F5750409AF0F1F088234AF087
:1005D000EE0FFF1FBB1F661F771F881F91505040F3
:1005E000A9F79E3F510580F00C944D020C9498029F
:1005F0005F3FE4F3983ED4F3869577956795B7957A
:10060000F795E7959F5FC1F7FE2B880F911D969593
:0A061000879597F90895F894FFCF3D
:00000001FF
