:100000000C9434000C9446000C9446000C9446006A
:100010000C9446000C9446000C9446000C94460048
:100020000C9446000C9446000C9446000C94460038
:100030000C9446000C9446000C9446000C94460028
:100040000C9446000C9446000C9446000C94460018
:100050000C9446000C9458000C9446000C944600F6
:100060000C9446000C94460011241FBECFEFD8E03C
:10007000DEBFCDBF21E0A0E0B1E001C01D92AB30FA
:10008000B207E1F70E9480010C949A010C940000E1
:100090001AB88FEF84B980EE8BB915B8089580E453
:1000A00080937C008FEC80937A0010927B000895FF
:1000B0001F920F920FB60F9211242F938F939F933D
:1000C000AF93BF93EF93FF93A8E7B0E08C91809339
:1000D0000A01E9E7F0E0808190E0909309018093C4
:1000E00008012C91808190E0982F8827822B909393
:1000F000070180930601EAE7F0E080818064808355
:10010000FF91EF91BF91AF919F918F912F910F90A0
:100110000FBE0F901F9018958091060190910701D6
:1001200008954F9913C085B1826085B981E090E050
:1001300090930501809304012FEF81EE94E021500C
:1001400080409040E1F700C0000008954E9913C030
:1001500085B1846085B981E090E09093030180933C
:1001600002012FEF81EE94E0215080409040E1F7B2
:1001700000C0000008954D9913C085B1886085B90D
:1001800081E090E090930101809300012FEF81EED8
:1001900094E0215080409040E1F700C000000895B5
:1001A00085B1807F85B908950E944F000E948C0020
:1001B0008B3A22E0920708F446C0809104019091A6
:1001C0000501892B89F085B1806185B94FEF81EEFA
:1001D00094E0415080409040E1F700C00000109250
:1001E00005011092040188C08091020190910301E1
:1001F000892B89F085B1806285B92FEF41EE84E0CB
:10020000215040408040E1F700C0000010920301FF
:100210001092020171C08091000190910101892B1F
:1002200009F46AC085B1806485B99FEF21EE44E08E
:10023000915020404040E1F700C0000010920101C1
:100240001092000159C09C0125553140263531409E
:1002500008F045C08091040190910501892B89F037
:1002600085B1806185B910920501109204018FEF6C
:1002700091EE24E0815090402040E1F700C0000062
:100280003BC08091020190910301892B89F085B1D7
:10029000806285B910920301109202014FEF81EE46
:1002A00094E0415080409040E1F700C0000024C03D
:1002B0008091000190910101892BF1F085B180645A
:1002C00085B910920101109200012FEF41EE84E0F8
:1002D000215040408040E1F700C000000DC085354E
:1002E000914050F415B84FEF81EE94E041508040BA
:1002F0009040E1F700C0000085B1807F85B9089586
:100300000E94480078940E9491002091040130914D
:1003100005018091020190910301822B932B209182
:10032000000130910101822B932B892B61F30E94F4
:08033000D400E9CFF894FFCFDF
:00000001FF
