:100000000C9434000C9446000C9446000C9446006A
:100010000C9446000C9446000C9446000C94460048
:100020000C9446000C9446000C9446000C94460038
:100030000C9446000C9446000C9446000C94460028
:100040000C9446000C9446000C9446000C94460018
:100050000C9446000C9459000C9446000C944600F5
:100060000C9446000C94460011241FBECFEFD8E03C
:10007000DEBFCDBF21E0A0E0B1E001C01D92AB30FA
:10008000B207E1F70E948D010C94A7010C940000C7
:100090008FE08AB98FEF84B980EF8BB915B80895D6
:1000A00080E480937C008FEC80937A0010927B0038
:1000B00008951F920F920FB60F9211242F938F93D2
:1000C0009F93AF93BF93EF93FF93A8E7B0E08C911A
:1000D00080930A01E9E7F0E0808190E090930901C4
:1000E000809308012C91808190E0982F8827822BA3
:1000F0009093070180930601EAE7F0E08081806435
:100100008083FF91EF91BF91AF919F918F912F913C
:100110000F900FBE0F901F9018958091060190913F
:10012000070108954F9913C085B1826085B981E0B8
:1001300090E090930501809304012FEF81EE94E00D
:10014000215080409040E1F700C0000008954E9992
:1001500013C085B1846085B981E090E0909303017C
:10016000809302012FEF81EE94E021508040904077
:10017000E1F700C0000008954D9913C085B1886073
:1001800085B981E090E090930101809300012FEF09
:1001900081EE94E0215080409040E1F700C00000E3
:1001A000089585B1807F85B908950E9450000E940E
:1001B0008D008C3A22E0920708F44FC08091040130
:1001C00090910501892BA1F085B1806185B98BB132
:1001D00088608BB94FEF81EE94E0415080409040B1
:1001E000E1F700C00000109205011092040191C0D7
:1001F0008091020190910301892BA1F085B1806269
:1002000085B98BB184608BB92FEF41EE84E021502A
:1002100040408040E1F700C00000109203011092BE
:10022000020177C08091000190910101892B09F4AE
:1002300070C085B1806485B98BB182608BB99FEF46
:1002400021EE44E0915020404040E1F700C0000022
:1002500010920101109200015CC09C0125553140B3
:100260002735314008F045C0809104019091050187
:10027000892B89F08BB188608BB91092050110929F
:1002800004018FEF91EE24E0815090402040E1F78F
:1002900000C000003EC08091020190910301892BB3
:1002A00089F08BB184608BB9109203011092020126
:1002B0004FEF81EE94E0415080409040E1F700C064
:1002C000000027C08091000190910101892B09F164
:1002D0008BB182608BB910920101109200012FEF57
:1002E00041EE84E0215040408040E1F700C0000032
:1002F00010C08535914068F415B88BB1807F8BB9FB
:100300004FEF81EE94E0415080409040E1F700C013
:10031000000085B1807F85B908950E9448007894D7
:100320000E94920020910401309105018091020108
:1003300090910301822B932B2091000130910101B8
:10034000822B932B892B61F30E94D500E9CFF8947F
:02035000FFCFDD
:00000001FF
